:040000009DEF09F077
:101000000000010E296E2350D8B409EF08F00BEF51
:1010100008F01BEF08F02350D96EDA6ADF30E832AF
:10102000E832070B246E070E246419EF08F01BEF5B
:1010300008F072EF08F0000E296E92EF08F02350CE
:10104000D96EDA6ADF30E832E832070B246E010E1F
:10105000256E242A2EEF08F0D8902536242E2CEF6A
:1010600008F02550FF0A266E2350D96EDA6ADF5049
:10107000070B020DF350150FD96EDA6ADECF27F099
:10108000DDCF28F027C0D9FF28C0DAFF2650DF16B1
:1010900092EF08F02350D96EDA6ADF30E832E83296
:1010A000070B246E010E256E242A59EF08F0D89004
:1010B0002536242E57EF08F02350D96EDA6ADF5018
:1010C000070B020DF350150FD96EDA6ADECF26F04A
:1010D000DDCF27F026C0D9FF27C0DAFF2550DF1269
:1010E00092EF08F02350D96EDA6ADFBC7AEF08F08D
:1010F0007DEF08F0010E7EEF08F0000E246E256AE9
:101100002550000AD8B487EF08F01BEF08F02450F0
:10111000000AD8B41FEF08F0010AD8B44AEF08F06B
:101120001BEF08F029501200220E2A6E66EC09F01F
:10113000306E210E2A6E66EC09F0306E200E2A6E9B
:1011400066EC09F0306E1F0E2A6E66EC09F0306E08
:10115000220E296E2EEC09F0060E2F6E130E2E6E47
:10116000AE0EE82EFED72E2EFCD72F2EFAD7210E4C
:10117000296E2EEC09F0060E2F6E130E2E6EAE0E9B
:10118000E82EFED72E2EFCD72F2EFAD7200E296E52
:101190002EEC09F0060E2F6E130E2E6EAE0EE82EFC
:1011A000FED72E2EFCD72F2EFAD71F0E296E2EEC2F
:1011B00009F0060E2F6E130E2E6EAE0EE82EFED721
:1011C0002E2EFCD72F2EFAD7A8EF08F000EF00F054
:1011D000010E286E2350D8B4F0EF08F0F2EF08F0BB
:1011E00002EF09F02350D96EDA6ADF30E832E832D4
:1011F000070B246E070E246400EF09F002EF09F0DC
:1012000006EF09F0000E286E2CEF09F02350D96E7E
:10121000DA6ADF30E832E832070B246E010E256E01
:10122000242A15EF09F0D8902536242E13EF09F063
:101230002350D96EDA6ADF50070B020DF3500B0F03
:10124000D96EDA6ADECF26F0DDCF27F026C0D9FFCF
:1012500027C0DAFF2550DF1A28501200010E2B6E2E
:1012600035C02CF02950D96EDA6ADF500F0B2A6E88
:101270002C502A18F80B2A182C6E2950D96EDA6ACD
:10128000DF38070B2A6E2A462A462A462C502A188F
:10129000C70B2A182C6E2C9C2950D96EDA6ADFAE47
:1012A00002D02C8E01D02C9E2950D8A45AEF09F0E0
:1012B0005CEF09F060EF09F0000E2B6E64EF09F0AF
:1012C0002C0E236EE8EC08F02B50120038C02DF0E5
:1012D0002A50D96EDA6ADF500F0B2B6E2D502B1867
:1012E000F80B2B182D6E2A50D96EDA6ADF38070BEF
:1012F0002B6E2B462B462B462D502B18C70B2B182D
:101300002D6E2D9C2A50D96EDA6ADFAE02D02D8E5A
:1013100001D02D9E2A50D8A490EF09F092EF09F049
:1013200096EF09F0000E2C6E9BEF09F02D0E236E48
:1013300001EC08F02C6E2C501200700EF66E130E9D
:10134000F76E000EF86E00EE01F010EE22F00900CC
:10135000F5CFEEFFE550E150FAE100EE31F0080E76
:10136000EE6AE806FDE1000EF86E000194EF08F069
:10137000800F810F820F830F830F890F8A0F8B0FCE
:101380008C0F8D0F920F930F940F950F960F32A223
:021390001282C7
:020000040030CA
:0E000000FF02191EFF8981FF0FC00FE00F40A5
:00000001FF
